{"contracts/SampleContract.sol":{"SampleContract":{"abi":[{"inputs":[],"name":"getAge","outputs":[{"internalType":"uint256","name":"","type":"uint256"}],"stateMutability":"view","type":"function"},{"inputs":[],"name":"getName","outputs":[{"internalType":"string","name":"","type":"string"}],"stateMutability":"view","type":"function"},{"inputs":[{"internalType":"uint256","name":"newAge","type":"uint256"}],"name":"setAge","outputs":[],"stateMutability":"nonpayable","type":"function"},{"inputs":[{"internalType":"string","name":"newName","type":"string"}],"name":"setName","outputs":[],"stateMutability":"nonpayable","type":"function"}],"evm":{"bytecode":{"linkReferences":{},"object":"608060405234801561001057600080fd5b50610763806100206000396000f3fe608060405234801561001057600080fd5b506004361061004c5760003560e01c806317d7de7c14610051578063967e6e651461006f578063c47f00271461008d578063d5dcf127146100a9575b600080fd5b6100596100c5565b604051610066919061020e565b60405180910390f35b610077610157565b6040516100849190610249565b60405180910390f35b6100a760048036038101906100a291906103ad565b610161565b005b6100c360048036038101906100be9190610422565b610174565b005b6060600080546100d49061047e565b80601f01602080910402602001604051908101604052809291908181526020018280546101009061047e565b801561014d5780601f106101225761010080835404028352916020019161014d565b820191906000526020600020905b81548152906001019060200180831161013057829003601f168201915b5050505050905090565b6000600154905090565b8060009081610170919061065b565b5050565b8060018190555050565b600081519050919050565b600082825260208201905092915050565b60005b838110156101b857808201518184015260208101905061019d565b60008484015250505050565b6000601f19601f8301169050919050565b60006101e08261017e565b6101ea8185610189565b93506101fa81856020860161019a565b610203816101c4565b840191505092915050565b6000602082019050818103600083015261022881846101d5565b905092915050565b6000819050919050565b61024381610230565b82525050565b600060208201905061025e600083018461023a565b92915050565b6000604051905090565b600080fd5b600080fd5b600080fd5b600080fd5b7f4e487b7100000000000000000000000000000000000000000000000000000000600052604160045260246000fd5b6102ba826101c4565b810181811067ffffffffffffffff821117156102d9576102d8610282565b5b80604052505050565b60006102ec610264565b90506102f882826102b1565b919050565b600067ffffffffffffffff82111561031857610317610282565b5b610321826101c4565b9050602081019050919050565b82818337600083830152505050565b600061035061034b846102fd565b6102e2565b90508281526020810184848401111561036c5761036b61027d565b5b61037784828561032e565b509392505050565b600082601f83011261039457610393610278565b5b81356103a484826020860161033d565b91505092915050565b6000602082840312156103c3576103c261026e565b5b600082013567ffffffffffffffff8111156103e1576103e0610273565b5b6103ed8482850161037f565b91505092915050565b6103ff81610230565b811461040a57600080fd5b50565b60008135905061041c816103f6565b92915050565b6000602082840312156104385761043761026e565b5b60006104468482850161040d565b91505092915050565b7f4e487b7100000000000000000000000000000000000000000000000000000000600052602260045260246000fd5b6000600282049050600182168061049657607f821691505b6020821081036104a9576104a861044f565b5b50919050565b60008190508160005260206000209050919050565b60006020601f8301049050919050565b600082821b905092915050565b6000600883026105117fffffffffffffffffffffffffffffffffffffffffffffffffffffffffffffffff826104d4565b61051b86836104d4565b95508019841693508086168417925050509392505050565b6000819050919050565b600061055861055361054e84610230565b610533565b610230565b9050919050565b6000819050919050565b6105728361053d565b61058661057e8261055f565b8484546104e1565b825550505050565b600090565b61059b61058e565b6105a6818484610569565b505050565b5b818110156105ca576105bf600082610593565b6001810190506105ac565b5050565b601f82111561060f576105e0816104af565b6105e9846104c4565b810160208510156105f8578190505b61060c610604856104c4565b8301826105ab565b50505b505050565b600082821c905092915050565b600061063260001984600802610614565b1980831691505092915050565b600061064b8383610621565b9150826002028217905092915050565b6106648261017e565b67ffffffffffffffff81111561067d5761067c610282565b5b610687825461047e565b6106928282856105ce565b600060209050601f8311600181146106c557600084156106b3578287015190505b6106bd858261063f565b865550610725565b601f1984166106d3866104af565b60005b828110156106fb578489015182556001820191506020850194506020810190506106d6565b868310156107185784890151610714601f891682610621565b8355505b6001600288020188555050505b50505050505056fea26469706673582212208db933946ecf7b56c96eb5e6c39cce63f5b648ef472dd3dbed125b664c9df6fe64736f6c63430008180033","opcodes":"PUSH1 0x80 PUSH1 0x40 MSTORE CALLVALUE DUP1 ISZERO PUSH2 0x10 JUMPI PUSH1 0x0 DUP1 REVERT JUMPDEST POP PUSH2 0x763 DUP1 PUSH2 0x20 PUSH1 0x0 CODECOPY PUSH1 0x0 RETURN INVALID PUSH1 0x80 PUSH1 0x40 MSTORE CALLVALUE DUP1 ISZERO PUSH2 0x10 JUMPI PUSH1 0x0 DUP1 REVERT JUMPDEST POP PUSH1 0x4 CALLDATASIZE LT PUSH2 0x4C JUMPI PUSH1 0x0 CALLDATALOAD PUSH1 0xE0 SHR DUP1 PUSH4 0x17D7DE7C EQ PUSH2 0x51 JUMPI DUP1 PUSH4 0x967E6E65 EQ PUSH2 0x6F JUMPI DUP1 PUSH4 0xC47F0027 EQ PUSH2 0x8D JUMPI DUP1 PUSH4 0xD5DCF127 EQ PUSH2 0xA9 JUMPI JUMPDEST PUSH1 0x0 DUP1 REVERT JUMPDEST PUSH2 0x59 PUSH2 0xC5 JUMP JUMPDEST PUSH1 0x40 MLOAD PUSH2 0x66 SWAP2 SWAP1 PUSH2 0x20E JUMP JUMPDEST PUSH1 0x40 MLOAD DUP1 SWAP2 SUB SWAP1 RETURN JUMPDEST PUSH2 0x77 PUSH2 0x157 JUMP JUMPDEST PUSH1 0x40 MLOAD PUSH2 0x84 SWAP2 SWAP1 PUSH2 0x249 JUMP JUMPDEST PUSH1 0x40 MLOAD DUP1 SWAP2 SUB SWAP1 RETURN JUMPDEST PUSH2 0xA7 PUSH1 0x4 DUP1 CALLDATASIZE SUB DUP2 ADD SWAP1 PUSH2 0xA2 SWAP2 SWAP1 PUSH2 0x3AD JUMP JUMPDEST PUSH2 0x161 JUMP JUMPDEST STOP JUMPDEST PUSH2 0xC3 PUSH1 0x4 DUP1 CALLDATASIZE SUB DUP2 ADD SWAP1 PUSH2 0xBE SWAP2 SWAP1 PUSH2 0x422 JUMP JUMPDEST PUSH2 0x174 JUMP JUMPDEST STOP JUMPDEST PUSH1 0x60 PUSH1 0x0 DUP1 SLOAD PUSH2 0xD4 SWAP1 PUSH2 0x47E JUMP JUMPDEST DUP1 PUSH1 0x1F ADD PUSH1 0x20 DUP1 SWAP2 DIV MUL PUSH1 0x20 ADD PUSH1 0x40 MLOAD SWAP1 DUP2 ADD PUSH1 0x40 MSTORE DUP1 SWAP3 SWAP2 SWAP1 DUP2 DUP2 MSTORE PUSH1 0x20 ADD DUP3 DUP1 SLOAD PUSH2 0x100 SWAP1 PUSH2 0x47E JUMP JUMPDEST DUP1 ISZERO PUSH2 0x14D JUMPI DUP1 PUSH1 0x1F LT PUSH2 0x122 JUMPI PUSH2 0x100 DUP1 DUP4 SLOAD DIV MUL DUP4 MSTORE SWAP2 PUSH1 0x20 ADD SWAP2 PUSH2 0x14D JUMP JUMPDEST DUP3 ADD SWAP2 SWAP1 PUSH1 0x0 MSTORE PUSH1 0x20 PUSH1 0x0 KECCAK256 SWAP1 JUMPDEST DUP2 SLOAD DUP2 MSTORE SWAP1 PUSH1 0x1 ADD SWAP1 PUSH1 0x20 ADD DUP1 DUP4 GT PUSH2 0x130 JUMPI DUP3 SWAP1 SUB PUSH1 0x1F AND DUP3 ADD SWAP2 JUMPDEST POP POP POP POP POP SWAP1 POP SWAP1 JUMP JUMPDEST PUSH1 0x0 PUSH1 0x1 SLOAD SWAP1 POP SWAP1 JUMP JUMPDEST DUP1 PUSH1 0x0 SWAP1 DUP2 PUSH2 0x170 SWAP2 SWAP1 PUSH2 0x65B JUMP JUMPDEST POP POP JUMP JUMPDEST DUP1 PUSH1 0x1 DUP2 SWAP1 SSTORE POP POP JUMP JUMPDEST PUSH1 0x0 DUP2 MLOAD SWAP1 POP SWAP2 SWAP1 POP JUMP JUMPDEST PUSH1 0x0 DUP3 DUP3 MSTORE PUSH1 0x20 DUP3 ADD SWAP1 POP SWAP3 SWAP2 POP POP JUMP JUMPDEST PUSH1 0x0 JUMPDEST DUP4 DUP2 LT ISZERO PUSH2 0x1B8 JUMPI DUP1 DUP3 ADD MLOAD DUP2 DUP5 ADD MSTORE PUSH1 0x20 DUP2 ADD SWAP1 POP PUSH2 0x19D JUMP JUMPDEST PUSH1 0x0 DUP5 DUP5 ADD MSTORE POP POP POP POP JUMP JUMPDEST PUSH1 0x0 PUSH1 0x1F NOT PUSH1 0x1F DUP4 ADD AND SWAP1 POP SWAP2 SWAP1 POP JUMP JUMPDEST PUSH1 0x0 PUSH2 0x1E0 DUP3 PUSH2 0x17E JUMP JUMPDEST PUSH2 0x1EA DUP2 DUP6 PUSH2 0x189 JUMP JUMPDEST SWAP4 POP PUSH2 0x1FA DUP2 DUP6 PUSH1 0x20 DUP7 ADD PUSH2 0x19A JUMP JUMPDEST PUSH2 0x203 DUP2 PUSH2 0x1C4 JUMP JUMPDEST DUP5 ADD SWAP2 POP POP SWAP3 SWAP2 POP POP JUMP JUMPDEST PUSH1 0x0 PUSH1 0x20 DUP3 ADD SWAP1 POP DUP2 DUP2 SUB PUSH1 0x0 DUP4 ADD MSTORE PUSH2 0x228 DUP2 DUP5 PUSH2 0x1D5 JUMP JUMPDEST SWAP1 POP SWAP3 SWAP2 POP POP JUMP JUMPDEST PUSH1 0x0 DUP2 SWAP1 POP SWAP2 SWAP1 POP JUMP JUMPDEST PUSH2 0x243 DUP2 PUSH2 0x230 JUMP JUMPDEST DUP3 MSTORE POP POP JUMP JUMPDEST PUSH1 0x0 PUSH1 0x20 DUP3 ADD SWAP1 POP PUSH2 0x25E PUSH1 0x0 DUP4 ADD DUP5 PUSH2 0x23A JUMP JUMPDEST SWAP3 SWAP2 POP POP JUMP JUMPDEST PUSH1 0x0 PUSH1 0x40 MLOAD SWAP1 POP SWAP1 JUMP JUMPDEST PUSH1 0x0 DUP1 REVERT JUMPDEST PUSH1 0x0 DUP1 REVERT JUMPDEST PUSH1 0x0 DUP1 REVERT JUMPDEST PUSH1 0x0 DUP1 REVERT JUMPDEST PUSH32 0x4E487B7100000000000000000000000000000000000000000000000000000000 PUSH1 0x0 MSTORE PUSH1 0x41 PUSH1 0x4 MSTORE PUSH1 0x24 PUSH1 0x0 REVERT JUMPDEST PUSH2 0x2BA DUP3 PUSH2 0x1C4 JUMP JUMPDEST DUP2 ADD DUP2 DUP2 LT PUSH8 0xFFFFFFFFFFFFFFFF DUP3 GT OR ISZERO PUSH2 0x2D9 JUMPI PUSH2 0x2D8 PUSH2 0x282 JUMP JUMPDEST JUMPDEST DUP1 PUSH1 0x40 MSTORE POP POP POP JUMP JUMPDEST PUSH1 0x0 PUSH2 0x2EC PUSH2 0x264 JUMP JUMPDEST SWAP1 POP PUSH2 0x2F8 DUP3 DUP3 PUSH2 0x2B1 JUMP JUMPDEST SWAP2 SWAP1 POP JUMP JUMPDEST PUSH1 0x0 PUSH8 0xFFFFFFFFFFFFFFFF DUP3 GT ISZERO PUSH2 0x318 JUMPI PUSH2 0x317 PUSH2 0x282 JUMP JUMPDEST JUMPDEST PUSH2 0x321 DUP3 PUSH2 0x1C4 JUMP JUMPDEST SWAP1 POP PUSH1 0x20 DUP2 ADD SWAP1 POP SWAP2 SWAP1 POP JUMP JUMPDEST DUP3 DUP2 DUP4 CALLDATACOPY PUSH1 0x0 DUP4 DUP4 ADD MSTORE POP POP POP JUMP JUMPDEST PUSH1 0x0 PUSH2 0x350 PUSH2 0x34B DUP5 PUSH2 0x2FD JUMP JUMPDEST PUSH2 0x2E2 JUMP JUMPDEST SWAP1 POP DUP3 DUP2 MSTORE PUSH1 0x20 DUP2 ADD DUP5 DUP5 DUP5 ADD GT ISZERO PUSH2 0x36C JUMPI PUSH2 0x36B PUSH2 0x27D JUMP JUMPDEST JUMPDEST PUSH2 0x377 DUP5 DUP3 DUP6 PUSH2 0x32E JUMP JUMPDEST POP SWAP4 SWAP3 POP POP POP JUMP JUMPDEST PUSH1 0x0 DUP3 PUSH1 0x1F DUP4 ADD SLT PUSH2 0x394 JUMPI PUSH2 0x393 PUSH2 0x278 JUMP JUMPDEST JUMPDEST DUP2 CALLDATALOAD PUSH2 0x3A4 DUP5 DUP3 PUSH1 0x20 DUP7 ADD PUSH2 0x33D JUMP JUMPDEST SWAP2 POP POP SWAP3 SWAP2 POP POP JUMP JUMPDEST PUSH1 0x0 PUSH1 0x20 DUP3 DUP5 SUB SLT ISZERO PUSH2 0x3C3 JUMPI PUSH2 0x3C2 PUSH2 0x26E JUMP JUMPDEST JUMPDEST PUSH1 0x0 DUP3 ADD CALLDATALOAD PUSH8 0xFFFFFFFFFFFFFFFF DUP2 GT ISZERO PUSH2 0x3E1 JUMPI PUSH2 0x3E0 PUSH2 0x273 JUMP JUMPDEST JUMPDEST PUSH2 0x3ED DUP5 DUP3 DUP6 ADD PUSH2 0x37F JUMP JUMPDEST SWAP2 POP POP SWAP3 SWAP2 POP POP JUMP JUMPDEST PUSH2 0x3FF DUP2 PUSH2 0x230 JUMP JUMPDEST DUP2 EQ PUSH2 0x40A JUMPI PUSH1 0x0 DUP1 REVERT JUMPDEST POP JUMP JUMPDEST PUSH1 0x0 DUP2 CALLDATALOAD SWAP1 POP PUSH2 0x41C DUP2 PUSH2 0x3F6 JUMP JUMPDEST SWAP3 SWAP2 POP POP JUMP JUMPDEST PUSH1 0x0 PUSH1 0x20 DUP3 DUP5 SUB SLT ISZERO PUSH2 0x438 JUMPI PUSH2 0x437 PUSH2 0x26E JUMP JUMPDEST JUMPDEST PUSH1 0x0 PUSH2 0x446 DUP5 DUP3 DUP6 ADD PUSH2 0x40D JUMP JUMPDEST SWAP2 POP POP SWAP3 SWAP2 POP POP JUMP JUMPDEST PUSH32 0x4E487B7100000000000000000000000000000000000000000000000000000000 PUSH1 0x0 MSTORE PUSH1 0x22 PUSH1 0x4 MSTORE PUSH1 0x24 PUSH1 0x0 REVERT JUMPDEST PUSH1 0x0 PUSH1 0x2 DUP3 DIV SWAP1 POP PUSH1 0x1 DUP3 AND DUP1 PUSH2 0x496 JUMPI PUSH1 0x7F DUP3 AND SWAP2 POP JUMPDEST PUSH1 0x20 DUP3 LT DUP2 SUB PUSH2 0x4A9 JUMPI PUSH2 0x4A8 PUSH2 0x44F JUMP JUMPDEST JUMPDEST POP SWAP2 SWAP1 POP JUMP JUMPDEST PUSH1 0x0 DUP2 SWAP1 POP DUP2 PUSH1 0x0 MSTORE PUSH1 0x20 PUSH1 0x0 KECCAK256 SWAP1 POP SWAP2 SWAP1 POP JUMP JUMPDEST PUSH1 0x0 PUSH1 0x20 PUSH1 0x1F DUP4 ADD DIV SWAP1 POP SWAP2 SWAP1 POP JUMP JUMPDEST PUSH1 0x0 DUP3 DUP3 SHL SWAP1 POP SWAP3 SWAP2 POP POP JUMP JUMPDEST PUSH1 0x0 PUSH1 0x8 DUP4 MUL PUSH2 0x511 PUSH32 0xFFFFFFFFFFFFFFFFFFFFFFFFFFFFFFFFFFFFFFFFFFFFFFFFFFFFFFFFFFFFFFFF DUP3 PUSH2 0x4D4 JUMP JUMPDEST PUSH2 0x51B DUP7 DUP4 PUSH2 0x4D4 JUMP JUMPDEST SWAP6 POP DUP1 NOT DUP5 AND SWAP4 POP DUP1 DUP7 AND DUP5 OR SWAP3 POP POP POP SWAP4 SWAP3 POP POP POP JUMP JUMPDEST PUSH1 0x0 DUP2 SWAP1 POP SWAP2 SWAP1 POP JUMP JUMPDEST PUSH1 0x0 PUSH2 0x558 PUSH2 0x553 PUSH2 0x54E DUP5 PUSH2 0x230 JUMP JUMPDEST PUSH2 0x533 JUMP JUMPDEST PUSH2 0x230 JUMP JUMPDEST SWAP1 POP SWAP2 SWAP1 POP JUMP JUMPDEST PUSH1 0x0 DUP2 SWAP1 POP SWAP2 SWAP1 POP JUMP JUMPDEST PUSH2 0x572 DUP4 PUSH2 0x53D JUMP JUMPDEST PUSH2 0x586 PUSH2 0x57E DUP3 PUSH2 0x55F JUMP JUMPDEST DUP5 DUP5 SLOAD PUSH2 0x4E1 JUMP JUMPDEST DUP3 SSTORE POP POP POP POP JUMP JUMPDEST PUSH1 0x0 SWAP1 JUMP JUMPDEST PUSH2 0x59B PUSH2 0x58E JUMP JUMPDEST PUSH2 0x5A6 DUP2 DUP5 DUP5 PUSH2 0x569 JUMP JUMPDEST POP POP POP JUMP JUMPDEST JUMPDEST DUP2 DUP2 LT ISZERO PUSH2 0x5CA JUMPI PUSH2 0x5BF PUSH1 0x0 DUP3 PUSH2 0x593 JUMP JUMPDEST PUSH1 0x1 DUP2 ADD SWAP1 POP PUSH2 0x5AC JUMP JUMPDEST POP POP JUMP JUMPDEST PUSH1 0x1F DUP3 GT ISZERO PUSH2 0x60F JUMPI PUSH2 0x5E0 DUP2 PUSH2 0x4AF JUMP JUMPDEST PUSH2 0x5E9 DUP5 PUSH2 0x4C4 JUMP JUMPDEST DUP2 ADD PUSH1 0x20 DUP6 LT ISZERO PUSH2 0x5F8 JUMPI DUP2 SWAP1 POP JUMPDEST PUSH2 0x60C PUSH2 0x604 DUP6 PUSH2 0x4C4 JUMP JUMPDEST DUP4 ADD DUP3 PUSH2 0x5AB JUMP JUMPDEST POP POP JUMPDEST POP POP POP JUMP JUMPDEST PUSH1 0x0 DUP3 DUP3 SHR SWAP1 POP SWAP3 SWAP2 POP POP JUMP JUMPDEST PUSH1 0x0 PUSH2 0x632 PUSH1 0x0 NOT DUP5 PUSH1 0x8 MUL PUSH2 0x614 JUMP JUMPDEST NOT DUP1 DUP4 AND SWAP2 POP POP SWAP3 SWAP2 POP POP JUMP JUMPDEST PUSH1 0x0 PUSH2 0x64B DUP4 DUP4 PUSH2 0x621 JUMP JUMPDEST SWAP2 POP DUP3 PUSH1 0x2 MUL DUP3 OR SWAP1 POP SWAP3 SWAP2 POP POP JUMP JUMPDEST PUSH2 0x664 DUP3 PUSH2 0x17E JUMP JUMPDEST PUSH8 0xFFFFFFFFFFFFFFFF DUP2 GT ISZERO PUSH2 0x67D JUMPI PUSH2 0x67C PUSH2 0x282 JUMP JUMPDEST JUMPDEST PUSH2 0x687 DUP3 SLOAD PUSH2 0x47E JUMP JUMPDEST PUSH2 0x692 DUP3 DUP3 DUP6 PUSH2 0x5CE JUMP JUMPDEST PUSH1 0x0 PUSH1 0x20 SWAP1 POP PUSH1 0x1F DUP4 GT PUSH1 0x1 DUP2 EQ PUSH2 0x6C5 JUMPI PUSH1 0x0 DUP5 ISZERO PUSH2 0x6B3 JUMPI DUP3 DUP8 ADD MLOAD SWAP1 POP JUMPDEST PUSH2 0x6BD DUP6 DUP3 PUSH2 0x63F JUMP JUMPDEST DUP7 SSTORE POP PUSH2 0x725 JUMP JUMPDEST PUSH1 0x1F NOT DUP5 AND PUSH2 0x6D3 DUP7 PUSH2 0x4AF JUMP JUMPDEST PUSH1 0x0 JUMPDEST DUP3 DUP2 LT ISZERO PUSH2 0x6FB JUMPI DUP5 DUP10 ADD MLOAD DUP3 SSTORE PUSH1 0x1 DUP3 ADD SWAP2 POP PUSH1 0x20 DUP6 ADD SWAP5 POP PUSH1 0x20 DUP2 ADD SWAP1 POP PUSH2 0x6D6 JUMP JUMPDEST DUP7 DUP4 LT ISZERO PUSH2 0x718 JUMPI DUP5 DUP10 ADD MLOAD PUSH2 0x714 PUSH1 0x1F DUP10 AND DUP3 PUSH2 0x621 JUMP JUMPDEST DUP4 SSTORE POP JUMPDEST PUSH1 0x1 PUSH1 0x2 DUP9 MUL ADD DUP9 SSTORE POP POP POP JUMPDEST POP POP POP POP POP POP JUMP INVALID LOG2 PUSH5 0x6970667358 0x22 SLT KECCAK256 DUP14 0xB9 CALLER SWAP5 PUSH15 0xCF7B56C96EB5E6C39CCE63F5B648EF SELFBALANCE 0x2D 0xD3 0xDB 0xED SLT JUMPDEST PUSH7 0x4C9DF6FE64736F PUSH13 0x63430008180033000000000000 "},"methodIdentifiers":{"getAge()":"967e6e65","getName()":"17d7de7c","setAge(uint256)":"d5dcf127","setName(string)":"c47f0027"}}}}}