{
  "_format": "hh-sol-artifact-1",
  "contractName": "SampleContract",
  "sourceName": "contracts/SampleContract.sol",
  "abi": [
    {
      "inputs": [
        {
          "internalType": "string",
          "name": "inName",
          "type": "string"
        }
      ],
      "name": "checkNameAge",
      "outputs": [
        {
          "internalType": "uint256",
          "name": "",
          "type": "uint256"
        }
      ],
      "stateMutability": "view",
      "type": "function"
    },
    {
      "inputs": [],
      "name": "getAge",
      "outputs": [
        {
          "internalType": "uint256",
          "name": "",
          "type": "uint256"
        }
      ],
      "stateMutability": "view",
      "type": "function"
    },
    {
      "inputs": [],
      "name": "getName",
      "outputs": [
        {
          "internalType": "string",
          "name": "",
          "type": "string"
        }
      ],
      "stateMutability": "view",
      "type": "function"
    },
    {
      "inputs": [
        {
          "internalType": "bytes32",
          "name": "",
          "type": "bytes32"
        }
      ],
      "name": "information",
      "outputs": [
        {
          "internalType": "uint256",
          "name": "",
          "type": "uint256"
        }
      ],
      "stateMutability": "view",
      "type": "function"
    },
    {
      "inputs": [
        {
          "internalType": "uint256",
          "name": "newAge",
          "type": "uint256"
        }
      ],
      "name": "setAge",
      "outputs": [],
      "stateMutability": "nonpayable",
      "type": "function"
    },
    {
      "inputs": [
        {
          "internalType": "string",
          "name": "newName",
          "type": "string"
        }
      ],
      "name": "setName",
      "outputs": [],
      "stateMutability": "nonpayable",
      "type": "function"
    },
    {
      "inputs": [
        {
          "internalType": "string",
          "name": "inName",
          "type": "string"
        },
        {
          "internalType": "uint256",
          "name": "inAge",
          "type": "uint256"
        }
      ],
      "name": "setNameAge",
      "outputs": [],
      "stateMutability": "nonpayable",
      "type": "function"
    }
  ],
  "bytecode": "0x608060405234801561001057600080fd5b506109ca806100206000396000f3fe608060405234801561001057600080fd5b506004361061007d5760003560e01c8063967e6e651161005b578063967e6e65146100ec578063c47f00271461010a578063d5dcf12714610126578063de555273146101425761007d565b806316eda3f91461008257806317d7de7c1461009e5780636eb2a856146100bc575b600080fd5b61009c60048036038101906100979190610463565b610172565b005b6100a66101ba565b6040516100b3919061053e565b60405180910390f35b6100d660048036038101906100d19190610560565b61024c565b6040516100e391906105b8565b60405180910390f35b6100f4610294565b60405161010191906105b8565b60405180910390f35b610124600480360381019061011f9190610560565b61029e565b005b610140600480360381019061013b91906105d3565b6102b1565b005b61015c60048036038101906101579190610636565b6102bb565b60405161016991906105b8565b60405180910390f35b600082604051602001610185919061069f565b604051602081830303815290604052805190602001209050816003600083815260200190815260200160002081905550505050565b6060600080546101c9906106e5565b80601f01602080910402602001604051908101604052809291908181526020018280546101f5906106e5565b80156102425780601f1061021757610100808354040283529160200191610242565b820191906000526020600020905b81548152906001019060200180831161022557829003601f168201915b5050505050905090565b60008082604051602001610260919061069f565b6040516020818303038152906040528051906020012090506003600082815260200190815260200160002054915050919050565b6000600154905090565b80600090816102ad91906108c2565b5050565b8060018190555050565b60036020528060005260406000206000915090505481565b6000604051905090565b600080fd5b600080fd5b600080fd5b600080fd5b6000601f19601f8301169050919050565b7f4e487b7100000000000000000000000000000000000000000000000000000000600052604160045260246000fd5b61033a826102f1565b810181811067ffffffffffffffff8211171561035957610358610302565b5b80604052505050565b600061036c6102d3565b90506103788282610331565b919050565b600067ffffffffffffffff82111561039857610397610302565b5b6103a1826102f1565b9050602081019050919050565b82818337600083830152505050565b60006103d06103cb8461037d565b610362565b9050828152602081018484840111156103ec576103eb6102ec565b5b6103f78482856103ae565b509392505050565b600082601f830112610414576104136102e7565b5b81356104248482602086016103bd565b91505092915050565b6000819050919050565b6104408161042d565b811461044b57600080fd5b50565b60008135905061045d81610437565b92915050565b6000806040838503121561047a576104796102dd565b5b600083013567ffffffffffffffff811115610498576104976102e2565b5b6104a4858286016103ff565b92505060206104b58582860161044e565b9150509250929050565b600081519050919050565b600082825260208201905092915050565b60005b838110156104f95780820151818401526020810190506104de565b60008484015250505050565b6000610510826104bf565b61051a81856104ca565b935061052a8185602086016104db565b610533816102f1565b840191505092915050565b600060208201905081810360008301526105588184610505565b905092915050565b600060208284031215610576576105756102dd565b5b600082013567ffffffffffffffff811115610594576105936102e2565b5b6105a0848285016103ff565b91505092915050565b6105b28161042d565b82525050565b60006020820190506105cd60008301846105a9565b92915050565b6000602082840312156105e9576105e86102dd565b5b60006105f78482850161044e565b91505092915050565b6000819050919050565b61061381610600565b811461061e57600080fd5b50565b6000813590506106308161060a565b92915050565b60006020828403121561064c5761064b6102dd565b5b600061065a84828501610621565b91505092915050565b600081905092915050565b6000610679826104bf565b6106838185610663565b93506106938185602086016104db565b80840191505092915050565b60006106ab828461066e565b915081905092915050565b7f4e487b7100000000000000000000000000000000000000000000000000000000600052602260045260246000fd5b600060028204905060018216806106fd57607f821691505b6020821081036107105761070f6106b6565b5b50919050565b60008190508160005260206000209050919050565b60006020601f8301049050919050565b600082821b905092915050565b6000600883026107787fffffffffffffffffffffffffffffffffffffffffffffffffffffffffffffffff8261073b565b610782868361073b565b95508019841693508086168417925050509392505050565b6000819050919050565b60006107bf6107ba6107b58461042d565b61079a565b61042d565b9050919050565b6000819050919050565b6107d9836107a4565b6107ed6107e5826107c6565b848454610748565b825550505050565b600090565b6108026107f5565b61080d8184846107d0565b505050565b5b81811015610831576108266000826107fa565b600181019050610813565b5050565b601f8211156108765761084781610716565b6108508461072b565b8101602085101561085f578190505b61087361086b8561072b565b830182610812565b50505b505050565b600082821c905092915050565b60006108996000198460080261087b565b1980831691505092915050565b60006108b28383610888565b9150826002028217905092915050565b6108cb826104bf565b67ffffffffffffffff8111156108e4576108e3610302565b5b6108ee82546106e5565b6108f9828285610835565b600060209050601f83116001811461092c576000841561091a578287015190505b61092485826108a6565b86555061098c565b601f19841661093a86610716565b60005b828110156109625784890151825560018201915060208501945060208101905061093d565b8683101561097f578489015161097b601f891682610888565b8355505b6001600288020188555050505b50505050505056fea26469706673582212205cc861c86c1e62287ee9dd45088ffa5cf1afd1294f4cc4ae59352f52b573c2a164736f6c63430008180033",
  "linkReferences": {},
  "deployedLinkReferences": {}
}